{
  "contractName": "ApprovalContract",
  "abi": [
    {
      "constant": true,
      "inputs": [],
      "name": "approver",
      "outputs": [
        {
          "name": "",
          "type": "address"
        }
      ],
      "payable": false,
      "stateMutability": "view",
      "type": "function"
    },
    {
      "constant": true,
      "inputs": [],
      "name": "sender",
      "outputs": [
        {
          "name": "",
          "type": "address"
        }
      ],
      "payable": false,
      "stateMutability": "view",
      "type": "function"
    },
    {
      "constant": true,
      "inputs": [],
      "name": "receiver",
      "outputs": [
        {
          "name": "",
          "type": "address"
        }
      ],
      "payable": false,
      "stateMutability": "view",
      "type": "function"
    },
    {
      "inputs": [],
      "payable": false,
      "stateMutability": "nonpayable",
      "type": "constructor"
    },
    {
      "constant": false,
      "inputs": [
        {
          "name": "_receiver",
          "type": "address"
        }
      ],
      "name": "deposit",
      "outputs": [],
      "payable": true,
      "stateMutability": "payable",
      "type": "function"
    },
    {
      "constant": true,
      "inputs": [],
      "name": "viewApprover",
      "outputs": [
        {
          "name": "",
          "type": "address"
        }
      ],
      "payable": false,
      "stateMutability": "pure",
      "type": "function"
    },
    {
      "constant": false,
      "inputs": [],
      "name": "approve",
      "outputs": [],
      "payable": false,
      "stateMutability": "nonpayable",
      "type": "function"
    }
  ],
  "bytecode": "0x608060405234801561001057600080fd5b5061041b806100206000396000f3fe6080604052600436106100555760003560e01c806312424e3f1461005a578063141a8dd81461007157806367e404ce146100c8578063d93ce89c1461011f578063f340fa0114610176578063f7260d3e146101ba575b600080fd5b34801561006657600080fd5b5061006f610211565b005b34801561007d57600080fd5b506100866102df565b604051808273ffffffffffffffffffffffffffffffffffffffff1673ffffffffffffffffffffffffffffffffffffffff16815260200191505060405180910390f35b3480156100d457600080fd5b506100dd6102f7565b604051808273ffffffffffffffffffffffffffffffffffffffff1673ffffffffffffffffffffffffffffffffffffffff16815260200191505060405180910390f35b34801561012b57600080fd5b5061013461031c565b604051808273ffffffffffffffffffffffffffffffffffffffff1673ffffffffffffffffffffffffffffffffffffffff16815260200191505060405180910390f35b6101b86004803603602081101561018c57600080fd5b81019080803573ffffffffffffffffffffffffffffffffffffffff169060200190929190505050610338565b005b3480156101c657600080fd5b506101cf6103c9565b604051808273ffffffffffffffffffffffffffffffffffffffff1673ffffffffffffffffffffffffffffffffffffffff16815260200191505060405180910390f35b737285e18b04c28a901277bb117b4033bce88f2c1473ffffffffffffffffffffffffffffffffffffffff163373ffffffffffffffffffffffffffffffffffffffff161461025d57600080fd5b600160009054906101000a900473ffffffffffffffffffffffffffffffffffffffff1673ffffffffffffffffffffffffffffffffffffffff166108fc3073ffffffffffffffffffffffffffffffffffffffff16319081150290604051600060405180830381858888f193505050501580156102dc573d6000803e3d6000fd5b50565b737285e18b04c28a901277bb117b4033bce88f2c1481565b6000809054906101000a900473ffffffffffffffffffffffffffffffffffffffff1681565b6000737285e18b04c28a901277bb117b4033bce88f2c14905090565b6000341161034557600080fd5b336000806101000a81548173ffffffffffffffffffffffffffffffffffffffff021916908373ffffffffffffffffffffffffffffffffffffffff16021790555080600160006101000a81548173ffffffffffffffffffffffffffffffffffffffff021916908373ffffffffffffffffffffffffffffffffffffffff16021790555050565b600160009054906101000a900473ffffffffffffffffffffffffffffffffffffffff168156fea165627a7a723058206e80c2b02df8b935bb0f297f2bf44f76de159dea701d251aff14dd14e6a68f600029",
  "source": "pragma solidity ^0.5.8;\n\ncontract ApprovalContract {\n\n  address public sender;\n  address payable public receiver;\n  address constant public approver = 0x7285E18B04c28A901277bb117B4033bCE88f2c14;\n\n  constructor() public {\n    // tbd\n  }\n\n  function deposit(address payable _receiver) external payable {\n    require(msg.value > 0);\n    sender = msg.sender;\n    receiver = _receiver;\n  }\n\n  function viewApprover() external pure returns(address) {\n    return(approver);\n  }\n\n  function approve() external {\n    require(msg.sender == approver);\n    receiver.transfer(address(this).balance);\n  }\n\n}\n",
  "sourcePath": "/Users/tudornastasa/Main/webDev/uni/cryptocredit07/client/src/contract/contracts/ApprovalContract.sol",
  "compiler": {
    "name": "solc",
    "version": "0.5.8+commit.23d335f2.Emscripten.clang"
  },
  "schemaVersion": "3.0.16",
  "updatedAt": "2019-10-25T19:12:05.972Z",
  "devdoc": {
    "methods": {}
  },
  "userdoc": {
    "methods": {}
  }
}